{
  "_format": "hh-sol-artifact-1",
  "contractName": "OpenBazaar",
  "sourceName": "contracts/OpenBazaar.sol",
  "abi": [
    {
      "inputs": [],
      "stateMutability": "nonpayable",
      "type": "constructor"
    },
    {
      "anonymous": false,
      "inputs": [
        {
          "indexed": true,
          "internalType": "address",
          "name": "account",
          "type": "address"
        },
        {
          "indexed": true,
          "internalType": "address",
          "name": "operator",
          "type": "address"
        },
        {
          "indexed": false,
          "internalType": "bool",
          "name": "approved",
          "type": "bool"
        }
      ],
      "name": "ApprovalForAll",
      "type": "event"
    },
    {
      "anonymous": false,
      "inputs": [
        {
          "indexed": true,
          "internalType": "address",
          "name": "operator",
          "type": "address"
        },
        {
          "indexed": true,
          "internalType": "address",
          "name": "from",
          "type": "address"
        },
        {
          "indexed": true,
          "internalType": "address",
          "name": "to",
          "type": "address"
        },
        {
          "indexed": false,
          "internalType": "uint256[]",
          "name": "ids",
          "type": "uint256[]"
        },
        {
          "indexed": false,
          "internalType": "uint256[]",
          "name": "values",
          "type": "uint256[]"
        }
      ],
      "name": "TransferBatch",
      "type": "event"
    },
    {
      "anonymous": false,
      "inputs": [
        {
          "indexed": true,
          "internalType": "address",
          "name": "operator",
          "type": "address"
        },
        {
          "indexed": true,
          "internalType": "address",
          "name": "from",
          "type": "address"
        },
        {
          "indexed": true,
          "internalType": "address",
          "name": "to",
          "type": "address"
        },
        {
          "indexed": false,
          "internalType": "uint256",
          "name": "id",
          "type": "uint256"
        },
        {
          "indexed": false,
          "internalType": "uint256",
          "name": "value",
          "type": "uint256"
        }
      ],
      "name": "TransferSingle",
      "type": "event"
    },
    {
      "anonymous": false,
      "inputs": [
        {
          "indexed": false,
          "internalType": "string",
          "name": "value",
          "type": "string"
        },
        {
          "indexed": true,
          "internalType": "uint256",
          "name": "id",
          "type": "uint256"
        }
      ],
      "name": "URI",
      "type": "event"
    },
    {
      "anonymous": false,
      "inputs": [
        {
          "indexed": true,
          "internalType": "uint256",
          "name": "tokenId",
          "type": "uint256"
        },
        {
          "indexed": false,
          "internalType": "address",
          "name": "owner",
          "type": "address"
        },
        {
          "indexed": false,
          "internalType": "address",
          "name": "creator",
          "type": "address"
        },
        {
          "indexed": false,
          "internalType": "uint256",
          "name": "price",
          "type": "uint256"
        },
        {
          "indexed": false,
          "internalType": "uint256",
          "name": "supply",
          "type": "uint256"
        },
        {
          "indexed": false,
          "internalType": "uint256",
          "name": "supplyleft",
          "type": "uint256"
        }
      ],
      "name": "digitalAssetFormed",
      "type": "event"
    },
    {
      "inputs": [
        {
          "internalType": "address",
          "name": "account",
          "type": "address"
        },
        {
          "internalType": "uint256",
          "name": "id",
          "type": "uint256"
        }
      ],
      "name": "balanceOf",
      "outputs": [
        {
          "internalType": "uint256",
          "name": "",
          "type": "uint256"
        }
      ],
      "stateMutability": "view",
      "type": "function"
    },
    {
      "inputs": [
        {
          "internalType": "address[]",
          "name": "accounts",
          "type": "address[]"
        },
        {
          "internalType": "uint256[]",
          "name": "ids",
          "type": "uint256[]"
        }
      ],
      "name": "balanceOfBatch",
      "outputs": [
        {
          "internalType": "uint256[]",
          "name": "",
          "type": "uint256[]"
        }
      ],
      "stateMutability": "view",
      "type": "function"
    },
    {
      "inputs": [
        {
          "internalType": "uint256",
          "name": "tokenId",
          "type": "uint256"
        }
      ],
      "name": "buyDigitalAsset",
      "outputs": [],
      "stateMutability": "payable",
      "type": "function"
    },
    {
      "inputs": [
        {
          "internalType": "string",
          "name": "tokenURI",
          "type": "string"
        },
        {
          "internalType": "uint256",
          "name": "supply",
          "type": "uint256"
        },
        {
          "internalType": "uint256",
          "name": "price",
          "type": "uint256"
        }
      ],
      "name": "createAsset",
      "outputs": [],
      "stateMutability": "payable",
      "type": "function"
    },
    {
      "inputs": [],
      "name": "getInventory",
      "outputs": [
        {
          "components": [
            {
              "internalType": "uint256",
              "name": "tokenId",
              "type": "uint256"
            },
            {
              "internalType": "address payable",
              "name": "owner",
              "type": "address"
            },
            {
              "internalType": "address payable",
              "name": "creator",
              "type": "address"
            },
            {
              "internalType": "uint256",
              "name": "price",
              "type": "uint256"
            },
            {
              "internalType": "uint256",
              "name": "supply",
              "type": "uint256"
            },
            {
              "internalType": "uint256",
              "name": "supplyleft",
              "type": "uint256"
            }
          ],
          "internalType": "struct OpenBazaar.digitalAsset[]",
          "name": "",
          "type": "tuple[]"
        }
      ],
      "stateMutability": "view",
      "type": "function"
    },
    {
      "inputs": [],
      "name": "getListings",
      "outputs": [
        {
          "components": [
            {
              "internalType": "uint256",
              "name": "tokenId",
              "type": "uint256"
            },
            {
              "internalType": "address payable",
              "name": "owner",
              "type": "address"
            },
            {
              "internalType": "address payable",
              "name": "creator",
              "type": "address"
            },
            {
              "internalType": "uint256",
              "name": "price",
              "type": "uint256"
            },
            {
              "internalType": "uint256",
              "name": "supply",
              "type": "uint256"
            },
            {
              "internalType": "uint256",
              "name": "supplyleft",
              "type": "uint256"
            }
          ],
          "internalType": "struct OpenBazaar.digitalAsset[]",
          "name": "",
          "type": "tuple[]"
        }
      ],
      "stateMutability": "view",
      "type": "function"
    },
    {
      "inputs": [],
      "name": "getStore",
      "outputs": [
        {
          "components": [
            {
              "internalType": "uint256",
              "name": "tokenId",
              "type": "uint256"
            },
            {
              "internalType": "address payable",
              "name": "owner",
              "type": "address"
            },
            {
              "internalType": "address payable",
              "name": "creator",
              "type": "address"
            },
            {
              "internalType": "uint256",
              "name": "price",
              "type": "uint256"
            },
            {
              "internalType": "uint256",
              "name": "supply",
              "type": "uint256"
            },
            {
              "internalType": "uint256",
              "name": "supplyleft",
              "type": "uint256"
            }
          ],
          "internalType": "struct OpenBazaar.digitalAsset[]",
          "name": "",
          "type": "tuple[]"
        }
      ],
      "stateMutability": "view",
      "type": "function"
    },
    {
      "inputs": [
        {
          "internalType": "address",
          "name": "account",
          "type": "address"
        },
        {
          "internalType": "address",
          "name": "operator",
          "type": "address"
        }
      ],
      "name": "isApprovedForAll",
      "outputs": [
        {
          "internalType": "bool",
          "name": "",
          "type": "bool"
        }
      ],
      "stateMutability": "view",
      "type": "function"
    },
    {
      "inputs": [
        {
          "internalType": "address",
          "name": "",
          "type": "address"
        },
        {
          "internalType": "address",
          "name": "",
          "type": "address"
        },
        {
          "internalType": "uint256[]",
          "name": "",
          "type": "uint256[]"
        },
        {
          "internalType": "uint256[]",
          "name": "",
          "type": "uint256[]"
        },
        {
          "internalType": "bytes",
          "name": "",
          "type": "bytes"
        }
      ],
      "name": "onERC1155BatchReceived",
      "outputs": [
        {
          "internalType": "bytes4",
          "name": "",
          "type": "bytes4"
        }
      ],
      "stateMutability": "nonpayable",
      "type": "function"
    },
    {
      "inputs": [
        {
          "internalType": "address",
          "name": "",
          "type": "address"
        },
        {
          "internalType": "address",
          "name": "",
          "type": "address"
        },
        {
          "internalType": "uint256",
          "name": "",
          "type": "uint256"
        },
        {
          "internalType": "uint256",
          "name": "",
          "type": "uint256"
        },
        {
          "internalType": "bytes",
          "name": "",
          "type": "bytes"
        }
      ],
      "name": "onERC1155Received",
      "outputs": [
        {
          "internalType": "bytes4",
          "name": "",
          "type": "bytes4"
        }
      ],
      "stateMutability": "nonpayable",
      "type": "function"
    },
    {
      "inputs": [
        {
          "internalType": "address",
          "name": "from",
          "type": "address"
        },
        {
          "internalType": "address",
          "name": "to",
          "type": "address"
        },
        {
          "internalType": "uint256[]",
          "name": "ids",
          "type": "uint256[]"
        },
        {
          "internalType": "uint256[]",
          "name": "amounts",
          "type": "uint256[]"
        },
        {
          "internalType": "bytes",
          "name": "data",
          "type": "bytes"
        }
      ],
      "name": "safeBatchTransferFrom",
      "outputs": [],
      "stateMutability": "nonpayable",
      "type": "function"
    },
    {
      "inputs": [
        {
          "internalType": "address",
          "name": "from",
          "type": "address"
        },
        {
          "internalType": "address",
          "name": "to",
          "type": "address"
        },
        {
          "internalType": "uint256",
          "name": "id",
          "type": "uint256"
        },
        {
          "internalType": "uint256",
          "name": "amount",
          "type": "uint256"
        },
        {
          "internalType": "bytes",
          "name": "data",
          "type": "bytes"
        }
      ],
      "name": "safeTransferFrom",
      "outputs": [],
      "stateMutability": "nonpayable",
      "type": "function"
    },
    {
      "inputs": [
        {
          "internalType": "address",
          "name": "operator",
          "type": "address"
        },
        {
          "internalType": "bool",
          "name": "approved",
          "type": "bool"
        }
      ],
      "name": "setApprovalForAll",
      "outputs": [],
      "stateMutability": "nonpayable",
      "type": "function"
    },
    {
      "inputs": [
        {
          "internalType": "bytes4",
          "name": "interfaceId",
          "type": "bytes4"
        }
      ],
      "name": "supportsInterface",
      "outputs": [
        {
          "internalType": "bool",
          "name": "",
          "type": "bool"
        }
      ],
      "stateMutability": "view",
      "type": "function"
    },
    {
      "inputs": [
        {
          "internalType": "uint256",
          "name": "tokenId",
          "type": "uint256"
        }
      ],
      "name": "uri",
      "outputs": [
        {
          "internalType": "string",
          "name": "",
          "type": "string"
        }
      ],
      "stateMutability": "view",
      "type": "function"
    }
  ],
  "bytecode": "0x608060405260405180602001604052806000815250600390805190602001906200002b929190620000bf565b503480156200003957600080fd5b50604051806020016040528060008152506200005b81620000a360201b60201c565b5033600560006101000a81548173ffffffffffffffffffffffffffffffffffffffff021916908373ffffffffffffffffffffffffffffffffffffffff160217905550620001d4565b8060029080519060200190620000bb929190620000bf565b5050565b828054620000cd906200016f565b90600052602060002090601f016020900481019282620000f157600085556200013d565b82601f106200010c57805160ff19168380011785556200013d565b828001600101855582156200013d579182015b828111156200013c5782518255916020019190600101906200011f565b5b5090506200014c919062000150565b5090565b5b808211156200016b57600081600090555060010162000151565b5090565b600060028204905060018216806200018857607f821691505b602082108114156200019f576200019e620001a5565b5b50919050565b7f4e487b7100000000000000000000000000000000000000000000000000000000600052602260045260246000fd5b613c6b80620001e46000396000f3fe6080604052600436106100e75760003560e01c80639cd1c0921161008a578063e985e9c511610059578063e985e9c5146102fd578063f1b2d6a31461033a578063f23a6e6114610365578063f242432a146103a2576100e7565b80639cd1c09214610250578063a22cb4651461026c578063bc197c8114610295578063c2722ecc146102d2576100e7565b80632eb2c2d6116100c65780632eb2c2d6146101a357806349ead9b4146101cc5780634e1273f4146101e85780635d7f850c14610225576100e7565b8062fdd58e146100ec57806301ffc9a7146101295780630e89341c14610166575b600080fd5b3480156100f857600080fd5b50610113600480360381019061010e91906129d4565b6103cb565b60405161012091906132eb565b60405180910390f35b34801561013557600080fd5b50610150600480360381019061014b9190612a7c565b610494565b60405161015d9190613153565b60405180910390f35b34801561017257600080fd5b5061018d60048036038101906101889190612b35565b6104a6565b60405161019a9190613189565b60405180910390f35b3480156101af57600080fd5b506101ca60048036038101906101c5919061284a565b61058b565b005b6101e660048036038101906101e19190612ace565b61062c565b005b3480156101f457600080fd5b5061020f600480360381019061020a9190612a10565b61067a565b60405161021c91906130fa565b60405180910390f35b34801561023157600080fd5b5061023a61082b565b60405161024791906130d8565b60405180910390f35b61026a60048036038101906102659190612b35565b610b62565b005b34801561027857600080fd5b50610293600480360381019061028e9190612998565b610d6d565b005b3480156102a157600080fd5b506102bc60048036038101906102b7919061284a565b610d83565b6040516102c9919061316e565b60405180910390f35b3480156102de57600080fd5b506102e7610d98565b6040516102f491906130d8565b60405180910390f35b34801561030957600080fd5b50610324600480360381019061031f919061280e565b611039565b6040516103319190613153565b60405180910390f35b34801561034657600080fd5b5061034f6110cd565b60405161035c91906130d8565b60405180910390f35b34801561037157600080fd5b5061038c60048036038101906103879190612909565b611187565b604051610399919061316e565b60405180910390f35b3480156103ae57600080fd5b506103c960048036038101906103c49190612909565b61119c565b005b60008073ffffffffffffffffffffffffffffffffffffffff168373ffffffffffffffffffffffffffffffffffffffff16141561043c576040517f08c379a00000000000000000000000000000000000000000000000000000000081526004016104339061320b565b60405180910390fd5b60008083815260200190815260200160002060008473ffffffffffffffffffffffffffffffffffffffff1673ffffffffffffffffffffffffffffffffffffffff16815260200190815260200160002054905092915050565b600061049f8261123d565b9050919050565b606060006004600084815260200190815260200160002080546104c890613685565b80601f01602080910402602001604051908101604052809291908181526020018280546104f490613685565b80156105415780601f1061051657610100808354040283529160200191610541565b820191906000526020600020905b81548152906001019060200180831161052457829003601f168201915b50505050509050600081511161055f5761055a8361131f565b610583565b600381604051602001610573929190612f9f565b6040516020818303038152906040525b915050919050565b6105936113b3565b73ffffffffffffffffffffffffffffffffffffffff168573ffffffffffffffffffffffffffffffffffffffff1614806105d957506105d8856105d36113b3565b611039565b5b610618576040517f08c379a000000000000000000000000000000000000000000000000000000000815260040161060f906131cb565b60405180910390fd5b61062585858585856113bb565b5050505050565b6106366006611729565b6000610642600661173f565b905061065f3382856040518060200160405280600081525061174d565b61066981856118fe565b61067481848461196a565b50505050565b606081518351146106c0576040517f08c379a00000000000000000000000000000000000000000000000000000000081526004016106b79061328b565b60405180910390fd5b6000835167ffffffffffffffff811115610703577f4e487b7100000000000000000000000000000000000000000000000000000000600052604160045260246000fd5b6040519080825280602002602001820160405280156107315781602001602082028036833780820191505090505b50905060005b8451811015610820576107ca85828151811061077c577f4e487b7100000000000000000000000000000000000000000000000000000000600052603260045260246000fd5b60200260200101518583815181106107bd577f4e487b7100000000000000000000000000000000000000000000000000000000600052603260045260246000fd5b60200260200101516103cb565b828281518110610803577f4e487b7100000000000000000000000000000000000000000000000000000000600052603260045260246000fd5b60200260200101818152505080610819906136e8565b9050610737565b508091505092915050565b606060008080600090505b610840600661173f565b8110156108df573373ffffffffffffffffffffffffffffffffffffffff166007600060018461086f91906134d8565b815260200190815260200160002060010160009054906101000a900473ffffffffffffffffffffffffffffffffffffffff1673ffffffffffffffffffffffffffffffffffffffff1614156108cc5781806108c8906136e8565b9250505b80806108d7906136e8565b915050610836565b5060008167ffffffffffffffff811115610922577f4e487b7100000000000000000000000000000000000000000000000000000000600052604160045260246000fd5b60405190808252806020026020018201604052801561095b57816020015b6109486124a4565b8152602001906001900390816109405790505b50905060005b61096b600661173f565b811015610b58573373ffffffffffffffffffffffffffffffffffffffff166007600060018461099a91906134d8565b815260200190815260200160002060010160009054906101000a900473ffffffffffffffffffffffffffffffffffffffff1673ffffffffffffffffffffffffffffffffffffffff161415610b455760006001826109f791906134d8565b90506000600760008381526020019081526020016000209050806040518060c0016040529081600082015481526020016001820160009054906101000a900473ffffffffffffffffffffffffffffffffffffffff1673ffffffffffffffffffffffffffffffffffffffff1673ffffffffffffffffffffffffffffffffffffffff1681526020016002820160009054906101000a900473ffffffffffffffffffffffffffffffffffffffff1673ffffffffffffffffffffffffffffffffffffffff1673ffffffffffffffffffffffffffffffffffffffff1681526020016003820154815260200160048201548152602001600582015481525050848781518110610b29577f4e487b7100000000000000000000000000000000000000000000000000000000600052603260045260246000fd5b60200260200101819052508580610b3f906136e8565b96505050505b8080610b50906136e8565b915050610961565b5080935050505090565b600060076000838152602001908152602001600020600301549050803414610b8957600080fd5b600760008381526020019081526020016000206004015460076000848152602001908152602001600020600501541015610bc257600080fd5b336007600084815260200190815260200160002060010160006101000a81548173ffffffffffffffffffffffffffffffffffffffff021916908373ffffffffffffffffffffffffffffffffffffffff160217905550600760008381526020019081526020016000206005016000815480929190610c3e9061365b565b9190505550610c60303384600160405180602001604052806000815250611af0565b6000606482610c6f919061352e565b905060008183610c7f919061355f565b90506007600085815260200190815260200160002060020160009054906101000a900473ffffffffffffffffffffffffffffffffffffffff1673ffffffffffffffffffffffffffffffffffffffff166108fc829081150290604051600060405180830381858888f19350505050158015610cfd573d6000803e3d6000fd5b50600560009054906101000a900473ffffffffffffffffffffffffffffffffffffffff1673ffffffffffffffffffffffffffffffffffffffff166108fc839081150290604051600060405180830381858888f19350505050158015610d66573d6000803e3d6000fd5b5050505050565b610d7f610d786113b3565b8383611d8c565b5050565b600063bc197c8160e01b905095945050505050565b606060008080600090505b610dad600661173f565b811015610e0157600060076000600184610dc791906134d8565b8152602001908152602001600020600501541115610dee578180610dea906136e8565b9250505b8080610df9906136e8565b915050610da3565b5060008167ffffffffffffffff811115610e44577f4e487b7100000000000000000000000000000000000000000000000000000000600052604160045260246000fd5b604051908082528060200260200182016040528015610e7d57816020015b610e6a6124a4565b815260200190600190039081610e625790505b50905060005b610e8d600661173f565b81101561102f57600060076000600184610ea791906134d8565b815260200190815260200160002060050154111561101c576000600182610ece91906134d8565b90506000600760008381526020019081526020016000209050806040518060c0016040529081600082015481526020016001820160009054906101000a900473ffffffffffffffffffffffffffffffffffffffff1673ffffffffffffffffffffffffffffffffffffffff1673ffffffffffffffffffffffffffffffffffffffff1681526020016002820160009054906101000a900473ffffffffffffffffffffffffffffffffffffffff1673ffffffffffffffffffffffffffffffffffffffff1673ffffffffffffffffffffffffffffffffffffffff1681526020016003820154815260200160048201548152602001600582015481525050848781518110611000577f4e487b7100000000000000000000000000000000000000000000000000000000600052603260045260246000fd5b60200260200101819052508580611016906136e8565b96505050505b8080611027906136e8565b915050610e83565b5080935050505090565b6000600160008473ffffffffffffffffffffffffffffffffffffffff1673ffffffffffffffffffffffffffffffffffffffff16815260200190815260200160002060008373ffffffffffffffffffffffffffffffffffffffff1673ffffffffffffffffffffffffffffffffffffffff16815260200190815260200160002060009054906101000a900460ff16905092915050565b606060008080600090505b6110e2600661173f565b811015611181573373ffffffffffffffffffffffffffffffffffffffff166007600060018461111191906134d8565b815260200190815260200160002060020160009054906101000a900473ffffffffffffffffffffffffffffffffffffffff1673ffffffffffffffffffffffffffffffffffffffff16141561116e57818061116a906136e8565b9250505b8080611179906136e8565b9150506110d8565b50505090565b600063f23a6e6160e01b905095945050505050565b6111a46113b3565b73ffffffffffffffffffffffffffffffffffffffff168573ffffffffffffffffffffffffffffffffffffffff1614806111ea57506111e9856111e46113b3565b611039565b5b611229576040517f08c379a0000000000000000000000000000000000000000000000000000000008152600401611220906131cb565b60405180910390fd5b6112368585858585611af0565b5050505050565b60007fd9b67a26000000000000000000000000000000000000000000000000000000007bffffffffffffffffffffffffffffffffffffffffffffffffffffffff1916827bffffffffffffffffffffffffffffffffffffffffffffffffffffffff1916148061130857507f0e89341c000000000000000000000000000000000000000000000000000000007bffffffffffffffffffffffffffffffffffffffffffffffffffffffff1916827bffffffffffffffffffffffffffffffffffffffffffffffffffffffff1916145b80611318575061131782611ef9565b5b9050919050565b60606002805461132e90613685565b80601f016020809104026020016040519081016040528092919081815260200182805461135a90613685565b80156113a75780601f1061137c576101008083540402835291602001916113a7565b820191906000526020600020905b81548152906001019060200180831161138a57829003601f168201915b50505050509050919050565b600033905090565b81518351146113ff576040517f08c379a00000000000000000000000000000000000000000000000000000000081526004016113f6906132ab565b60405180910390fd5b600073ffffffffffffffffffffffffffffffffffffffff168473ffffffffffffffffffffffffffffffffffffffff16141561146f576040517f08c379a00000000000000000000000000000000000000000000000000000000081526004016114669061322b565b60405180910390fd5b60006114796113b3565b9050611489818787878787611f73565b60005b84518110156116865760008582815181106114d0577f4e487b7100000000000000000000000000000000000000000000000000000000600052603260045260246000fd5b602002602001015190506000858381518110611515577f4e487b7100000000000000000000000000000000000000000000000000000000600052603260045260246000fd5b60200260200101519050600080600084815260200190815260200160002060008b73ffffffffffffffffffffffffffffffffffffffff1673ffffffffffffffffffffffffffffffffffffffff168152602001908152602001600020549050818110156115b6576040517f08c379a00000000000000000000000000000000000000000000000000000000081526004016115ad9061324b565b60405180910390fd5b81810360008085815260200190815260200160002060008c73ffffffffffffffffffffffffffffffffffffffff1673ffffffffffffffffffffffffffffffffffffffff168152602001908152602001600020819055508160008085815260200190815260200160002060008b73ffffffffffffffffffffffffffffffffffffffff1673ffffffffffffffffffffffffffffffffffffffff168152602001908152602001600020600082825461166b91906134d8565b925050819055505050508061167f906136e8565b905061148c565b508473ffffffffffffffffffffffffffffffffffffffff168673ffffffffffffffffffffffffffffffffffffffff168273ffffffffffffffffffffffffffffffffffffffff167f4a39dc06d4c0dbc64b70af90fd698a233a518aa5d07e595d983b8c0526c8f7fb87876040516116fd92919061311c565b60405180910390a4611713818787878787611f7b565b611721818787878787611f83565b505050505050565b6001816000016000828254019250508190555050565b600081600001549050919050565b600073ffffffffffffffffffffffffffffffffffffffff168473ffffffffffffffffffffffffffffffffffffffff1614156117bd576040517f08c379a00000000000000000000000000000000000000000000000000000000081526004016117b4906132cb565b60405180910390fd5b60006117c76113b3565b905060006117d48561216a565b905060006117e18561216a565b90506117f283600089858589611f73565b8460008088815260200190815260200160002060008973ffffffffffffffffffffffffffffffffffffffff1673ffffffffffffffffffffffffffffffffffffffff168152602001908152602001600020600082825461185191906134d8565b925050819055508673ffffffffffffffffffffffffffffffffffffffff16600073ffffffffffffffffffffffffffffffffffffffff168473ffffffffffffffffffffffffffffffffffffffff167fc3d58168c5ae7397731d063d5bbf3d657854427343f4c083240f7aacaa2d0f6289896040516118cf929190613306565b60405180910390a46118e683600089858589611f7b565b6118f583600089898989612230565b50505050505050565b80600460008481526020019081526020016000209080519060200190611925929190612506565b50817f6bb7ff708619ba0610cba295a58592e0451dee2622938c8755667688daf3529b611951846104a6565b60405161195e9190613189565b60405180910390a25050565b6040518060c001604052808481526020013073ffffffffffffffffffffffffffffffffffffffff1681526020013373ffffffffffffffffffffffffffffffffffffffff16815260200182815260200183815260200183815250600760008581526020019081526020016000206000820151816000015560208201518160010160006101000a81548173ffffffffffffffffffffffffffffffffffffffff021916908373ffffffffffffffffffffffffffffffffffffffff16021790555060408201518160020160006101000a81548173ffffffffffffffffffffffffffffffffffffffff021916908373ffffffffffffffffffffffffffffffffffffffff160217905550606082015181600301556080820151816004015560a08201518160050155905050611aab3330858560405180602001604052806000815250611af0565b827f3ffe9b8d795341efd2f0495fbb16d969752dd8678935e14843ae0dcc772564113033848687604051611ae3959493929190613085565b60405180910390a2505050565b600073ffffffffffffffffffffffffffffffffffffffff168473ffffffffffffffffffffffffffffffffffffffff161415611b60576040517f08c379a0000000000000000000000000000000000000000000000000000000008152600401611b579061322b565b60405180910390fd5b6000611b6a6113b3565b90506000611b778561216a565b90506000611b848561216a565b9050611b94838989858589611f73565b600080600088815260200190815260200160002060008a73ffffffffffffffffffffffffffffffffffffffff1673ffffffffffffffffffffffffffffffffffffffff16815260200190815260200160002054905085811015611c2b576040517f08c379a0000000000000000000000000000000000000000000000000000000008152600401611c229061324b565b60405180910390fd5b85810360008089815260200190815260200160002060008b73ffffffffffffffffffffffffffffffffffffffff1673ffffffffffffffffffffffffffffffffffffffff168152602001908152602001600020819055508560008089815260200190815260200160002060008a73ffffffffffffffffffffffffffffffffffffffff1673ffffffffffffffffffffffffffffffffffffffff1681526020019081526020016000206000828254611ce091906134d8565b925050819055508773ffffffffffffffffffffffffffffffffffffffff168973ffffffffffffffffffffffffffffffffffffffff168573ffffffffffffffffffffffffffffffffffffffff167fc3d58168c5ae7397731d063d5bbf3d657854427343f4c083240f7aacaa2d0f628a8a604051611d5d929190613306565b60405180910390a4611d73848a8a86868a611f7b565b611d81848a8a8a8a8a612230565b505050505050505050565b8173ffffffffffffffffffffffffffffffffffffffff168373ffffffffffffffffffffffffffffffffffffffff161415611dfb576040517f08c379a0000000000000000000000000000000000000000000000000000000008152600401611df29061326b565b60405180910390fd5b80600160008573ffffffffffffffffffffffffffffffffffffffff1673ffffffffffffffffffffffffffffffffffffffff16815260200190815260200160002060008473ffffffffffffffffffffffffffffffffffffffff1673ffffffffffffffffffffffffffffffffffffffff16815260200190815260200160002060006101000a81548160ff0219169083151502179055508173ffffffffffffffffffffffffffffffffffffffff168373ffffffffffffffffffffffffffffffffffffffff167f17307eab39ab6107e8899845ad3d59bd9653f200f220920489ca2b5937696c3183604051611eec9190613153565b60405180910390a3505050565b60007f4e2312e0000000000000000000000000000000000000000000000000000000007bffffffffffffffffffffffffffffffffffffffffffffffffffffffff1916827bffffffffffffffffffffffffffffffffffffffffffffffffffffffff19161480611f6c5750611f6b82612417565b5b9050919050565b505050505050565b505050505050565b611fa28473ffffffffffffffffffffffffffffffffffffffff16612481565b15612162578373ffffffffffffffffffffffffffffffffffffffff1663bc197c8187878686866040518663ffffffff1660e01b8152600401611fe8959493929190612fc3565b602060405180830381600087803b15801561200257600080fd5b505af192505050801561203357506040513d601f19601f820116820180604052508101906120309190612aa5565b60015b6120d95761203f6137ed565b806308c379a0141561209c5750612054613b43565b8061205f575061209e565b806040517f08c379a00000000000000000000000000000000000000000000000000000000081526004016120939190613189565b60405180910390fd5b505b6040517f08c379a00000000000000000000000000000000000000000000000000000000081526004016120d0906131ab565b60405180910390fd5b63bc197c8160e01b7bffffffffffffffffffffffffffffffffffffffffffffffffffffffff1916817bffffffffffffffffffffffffffffffffffffffffffffffffffffffff191614612160576040517f08c379a0000000000000000000000000000000000000000000000000000000008152600401612157906131eb565b60405180910390fd5b505b505050505050565b60606000600167ffffffffffffffff8111156121af577f4e487b7100000000000000000000000000000000000000000000000000000000600052604160045260246000fd5b6040519080825280602002602001820160405280156121dd5781602001602082028036833780820191505090505b509050828160008151811061221b577f4e487b7100000000000000000000000000000000000000000000000000000000600052603260045260246000fd5b60200260200101818152505080915050919050565b61224f8473ffffffffffffffffffffffffffffffffffffffff16612481565b1561240f578373ffffffffffffffffffffffffffffffffffffffff1663f23a6e6187878686866040518663ffffffff1660e01b815260040161229595949392919061302b565b602060405180830381600087803b1580156122af57600080fd5b505af19250505080156122e057506040513d601f19601f820116820180604052508101906122dd9190612aa5565b60015b612386576122ec6137ed565b806308c379a014156123495750612301613b43565b8061230c575061234b565b806040517f08c379a00000000000000000000000000000000000000000000000000000000081526004016123409190613189565b60405180910390fd5b505b6040517f08c379a000000000000000000000000000000000000000000000000000000000815260040161237d906131ab565b60405180910390fd5b63f23a6e6160e01b7bffffffffffffffffffffffffffffffffffffffffffffffffffffffff1916817bffffffffffffffffffffffffffffffffffffffffffffffffffffffff19161461240d576040517f08c379a0000000000000000000000000000000000000000000000000000000008152600401612404906131eb565b60405180910390fd5b505b505050505050565b60007f01ffc9a7000000000000000000000000000000000000000000000000000000007bffffffffffffffffffffffffffffffffffffffffffffffffffffffff1916827bffffffffffffffffffffffffffffffffffffffffffffffffffffffff1916149050919050565b6000808273ffffffffffffffffffffffffffffffffffffffff163b119050919050565b6040518060c0016040528060008152602001600073ffffffffffffffffffffffffffffffffffffffff168152602001600073ffffffffffffffffffffffffffffffffffffffff1681526020016000815260200160008152602001600081525090565b82805461251290613685565b90600052602060002090601f016020900481019282612534576000855561257b565b82601f1061254d57805160ff191683800117855561257b565b8280016001018555821561257b579182015b8281111561257a57825182559160200191906001019061255f565b5b509050612588919061258c565b5090565b5b808211156125a557600081600090555060010161258d565b5090565b60006125bc6125b784613354565b61332f565b905080838252602082019050828560208602820111156125db57600080fd5b60005b8581101561260b57816125f188826126fd565b8452602084019350602083019250506001810190506125de565b5050509392505050565b600061262861262384613380565b61332f565b9050808382526020820190508285602086028201111561264757600080fd5b60005b85811015612677578161265d88826127f9565b84526020840193506020830192505060018101905061264a565b5050509392505050565b600061269461268f846133ac565b61332f565b9050828152602081018484840111156126ac57600080fd5b6126b7848285613619565b509392505050565b60006126d26126cd846133dd565b61332f565b9050828152602081018484840111156126ea57600080fd5b6126f5848285613619565b509392505050565b60008135905061270c81613bd9565b92915050565b600082601f83011261272357600080fd5b81356127338482602086016125a9565b91505092915050565b600082601f83011261274d57600080fd5b813561275d848260208601612615565b91505092915050565b60008135905061277581613bf0565b92915050565b60008135905061278a81613c07565b92915050565b60008151905061279f81613c07565b92915050565b600082601f8301126127b657600080fd5b81356127c6848260208601612681565b91505092915050565b600082601f8301126127e057600080fd5b81356127f08482602086016126bf565b91505092915050565b60008135905061280881613c1e565b92915050565b6000806040838503121561282157600080fd5b600061282f858286016126fd565b9250506020612840858286016126fd565b9150509250929050565b600080600080600060a0868803121561286257600080fd5b6000612870888289016126fd565b9550506020612881888289016126fd565b945050604086013567ffffffffffffffff81111561289e57600080fd5b6128aa8882890161273c565b935050606086013567ffffffffffffffff8111156128c757600080fd5b6128d38882890161273c565b925050608086013567ffffffffffffffff8111156128f057600080fd5b6128fc888289016127a5565b9150509295509295909350565b600080600080600060a0868803121561292157600080fd5b600061292f888289016126fd565b9550506020612940888289016126fd565b9450506040612951888289016127f9565b9350506060612962888289016127f9565b925050608086013567ffffffffffffffff81111561297f57600080fd5b61298b888289016127a5565b9150509295509295909350565b600080604083850312156129ab57600080fd5b60006129b9858286016126fd565b92505060206129ca85828601612766565b9150509250929050565b600080604083850312156129e757600080fd5b60006129f5858286016126fd565b9250506020612a06858286016127f9565b9150509250929050565b60008060408385031215612a2357600080fd5b600083013567ffffffffffffffff811115612a3d57600080fd5b612a4985828601612712565b925050602083013567ffffffffffffffff811115612a6657600080fd5b612a728582860161273c565b9150509250929050565b600060208284031215612a8e57600080fd5b6000612a9c8482850161277b565b91505092915050565b600060208284031215612ab757600080fd5b6000612ac584828501612790565b91505092915050565b600080600060608486031215612ae357600080fd5b600084013567ffffffffffffffff811115612afd57600080fd5b612b09868287016127cf565b9350506020612b1a868287016127f9565b9250506040612b2b868287016127f9565b9150509250925092565b600060208284031215612b4757600080fd5b6000612b55848285016127f9565b91505092915050565b6000612b6a8383612f06565b60c08301905092915050565b6000612b828383612f81565b60208301905092915050565b612b97816135a5565b82525050565b612ba681613593565b82525050565b6000612bb782613443565b612bc18185613489565b9350612bcc8361340e565b8060005b83811015612bfd578151612be48882612b5e565b9750612bef8361346f565b925050600181019050612bd0565b5085935050505092915050565b6000612c158261344e565b612c1f818561349a565b9350612c2a8361341e565b8060005b83811015612c5b578151612c428882612b76565b9750612c4d8361347c565b925050600181019050612c2e565b5085935050505092915050565b612c71816135b7565b82525050565b612c80816135c3565b82525050565b6000612c9182613459565b612c9b81856134ab565b9350612cab818560208601613628565b612cb48161380f565b840191505092915050565b6000612cca82613464565b612cd481856134bc565b9350612ce4818560208601613628565b612ced8161380f565b840191505092915050565b6000612d0382613464565b612d0d81856134cd565b9350612d1d818560208601613628565b80840191505092915050565b60008154612d3681613685565b612d4081866134cd565b94506001821660008114612d5b5760018114612d6c57612d9f565b60ff19831686528186019350612d9f565b612d758561342e565b60005b83811015612d9757815481890152600182019150602081019050612d78565b838801955050505b50505092915050565b6000612db56034836134bc565b9150612dc08261382d565b604082019050919050565b6000612dd8602f836134bc565b9150612de38261387c565b604082019050919050565b6000612dfb6028836134bc565b9150612e06826138cb565b604082019050919050565b6000612e1e602a836134bc565b9150612e298261391a565b604082019050919050565b6000612e416025836134bc565b9150612e4c82613969565b604082019050919050565b6000612e64602a836134bc565b9150612e6f826139b8565b604082019050919050565b6000612e876029836134bc565b9150612e9282613a07565b604082019050919050565b6000612eaa6029836134bc565b9150612eb582613a56565b604082019050919050565b6000612ecd6028836134bc565b9150612ed882613aa5565b604082019050919050565b6000612ef06021836134bc565b9150612efb82613af4565b604082019050919050565b60c082016000820151612f1c6000850182612f81565b506020820151612f2f6020850182612b8e565b506040820151612f426040850182612b8e565b506060820151612f556060850182612f81565b506080820151612f686080850182612f81565b5060a0820151612f7b60a0850182612f81565b50505050565b612f8a8161360f565b82525050565b612f998161360f565b82525050565b6000612fab8285612d29565b9150612fb78284612cf8565b91508190509392505050565b600060a082019050612fd86000830188612b9d565b612fe56020830187612b9d565b8181036040830152612ff78186612c0a565b9050818103606083015261300b8185612c0a565b9050818103608083015261301f8184612c86565b90509695505050505050565b600060a0820190506130406000830188612b9d565b61304d6020830187612b9d565b61305a6040830186612f90565b6130676060830185612f90565b81810360808301526130798184612c86565b90509695505050505050565b600060a08201905061309a6000830188612b9d565b6130a76020830187612b9d565b6130b46040830186612f90565b6130c16060830185612f90565b6130ce6080830184612f90565b9695505050505050565b600060208201905081810360008301526130f28184612bac565b905092915050565b600060208201905081810360008301526131148184612c0a565b905092915050565b600060408201905081810360008301526131368185612c0a565b9050818103602083015261314a8184612c0a565b90509392505050565b60006020820190506131686000830184612c68565b92915050565b60006020820190506131836000830184612c77565b92915050565b600060208201905081810360008301526131a38184612cbf565b905092915050565b600060208201905081810360008301526131c481612da8565b9050919050565b600060208201905081810360008301526131e481612dcb565b9050919050565b6000602082019050818103600083015261320481612dee565b9050919050565b6000602082019050818103600083015261322481612e11565b9050919050565b6000602082019050818103600083015261324481612e34565b9050919050565b6000602082019050818103600083015261326481612e57565b9050919050565b6000602082019050818103600083015261328481612e7a565b9050919050565b600060208201905081810360008301526132a481612e9d565b9050919050565b600060208201905081810360008301526132c481612ec0565b9050919050565b600060208201905081810360008301526132e481612ee3565b9050919050565b60006020820190506133006000830184612f90565b92915050565b600060408201905061331b6000830185612f90565b6133286020830184612f90565b9392505050565b600061333961334a565b905061334582826136b7565b919050565b6000604051905090565b600067ffffffffffffffff82111561336f5761336e6137be565b5b602082029050602081019050919050565b600067ffffffffffffffff82111561339b5761339a6137be565b5b602082029050602081019050919050565b600067ffffffffffffffff8211156133c7576133c66137be565b5b6133d08261380f565b9050602081019050919050565b600067ffffffffffffffff8211156133f8576133f76137be565b5b6134018261380f565b9050602081019050919050565b6000819050602082019050919050565b6000819050602082019050919050565b60008190508160005260206000209050919050565b600081519050919050565b600081519050919050565b600081519050919050565b600081519050919050565b6000602082019050919050565b6000602082019050919050565b600082825260208201905092915050565b600082825260208201905092915050565b600082825260208201905092915050565b600082825260208201905092915050565b600081905092915050565b60006134e38261360f565b91506134ee8361360f565b9250827fffffffffffffffffffffffffffffffffffffffffffffffffffffffffffffffff0382111561352357613522613731565b5b828201905092915050565b60006135398261360f565b91506135448361360f565b92508261355457613553613760565b5b828204905092915050565b600061356a8261360f565b91506135758361360f565b92508282101561358857613587613731565b5b828203905092915050565b600061359e826135ef565b9050919050565b60006135b0826135ef565b9050919050565b60008115159050919050565b60007fffffffff0000000000000000000000000000000000000000000000000000000082169050919050565b600073ffffffffffffffffffffffffffffffffffffffff82169050919050565b6000819050919050565b82818337600083830152505050565b60005b8381101561364657808201518184015260208101905061362b565b83811115613655576000848401525b50505050565b60006136668261360f565b9150600082141561367a57613679613731565b5b600182039050919050565b6000600282049050600182168061369d57607f821691505b602082108114156136b1576136b061378f565b5b50919050565b6136c08261380f565b810181811067ffffffffffffffff821117156136df576136de6137be565b5b80604052505050565b60006136f38261360f565b91507fffffffffffffffffffffffffffffffffffffffffffffffffffffffffffffffff82141561372657613725613731565b5b600182019050919050565b7f4e487b7100000000000000000000000000000000000000000000000000000000600052601160045260246000fd5b7f4e487b7100000000000000000000000000000000000000000000000000000000600052601260045260246000fd5b7f4e487b7100000000000000000000000000000000000000000000000000000000600052602260045260246000fd5b7f4e487b7100000000000000000000000000000000000000000000000000000000600052604160045260246000fd5b600060033d111561380c5760046000803e613809600051613820565b90505b90565b6000601f19601f8301169050919050565b60008160e01c9050919050565b7f455243313135353a207472616e7366657220746f206e6f6e204552433131353560008201527f526563656976657220696d706c656d656e746572000000000000000000000000602082015250565b7f455243313135353a2063616c6c6572206973206e6f7420746f6b656e206f776e60008201527f6572206e6f7220617070726f7665640000000000000000000000000000000000602082015250565b7f455243313135353a204552433131353552656365697665722072656a6563746560008201527f6420746f6b656e73000000000000000000000000000000000000000000000000602082015250565b7f455243313135353a2061646472657373207a65726f206973206e6f742061207660008201527f616c6964206f776e657200000000000000000000000000000000000000000000602082015250565b7f455243313135353a207472616e7366657220746f20746865207a65726f20616460008201527f6472657373000000000000000000000000000000000000000000000000000000602082015250565b7f455243313135353a20696e73756666696369656e742062616c616e636520666f60008201527f72207472616e7366657200000000000000000000000000000000000000000000602082015250565b7f455243313135353a2073657474696e6720617070726f76616c2073746174757360008201527f20666f722073656c660000000000000000000000000000000000000000000000602082015250565b7f455243313135353a206163636f756e747320616e6420696473206c656e67746860008201527f206d69736d617463680000000000000000000000000000000000000000000000602082015250565b7f455243313135353a2069647320616e6420616d6f756e7473206c656e6774682060008201527f6d69736d61746368000000000000000000000000000000000000000000000000602082015250565b7f455243313135353a206d696e7420746f20746865207a65726f2061646472657360008201527f7300000000000000000000000000000000000000000000000000000000000000602082015250565b600060443d1015613b5357613bd6565b613b5b61334a565b60043d036004823e80513d602482011167ffffffffffffffff82111715613b83575050613bd6565b808201805167ffffffffffffffff811115613ba15750505050613bd6565b80602083010160043d038501811115613bbe575050505050613bd6565b613bcd826020018501866136b7565b82955050505050505b90565b613be281613593565b8114613bed57600080fd5b50565b613bf9816135b7565b8114613c0457600080fd5b50565b613c10816135c3565b8114613c1b57600080fd5b50565b613c278161360f565b8114613c3257600080fd5b5056fea26469706673582212204b1728e443a93e89c6300256705aa1ce7867b7ad019195c5b0c1e44abf6873fe64736f6c63430008040033",
  "linkReferences": {},
  "deployedLinkReferences": {}
}